{
  "_format": "hh-sol-artifact-1",
  "contractName": "DynamicSvgNft",
  "sourceName": "contracts/DynamicSvgNft.sol",
  "abi": [
    {
      "inputs": [
        {
          "internalType": "string",
          "name": "lowImageUri",
          "type": "string"
        },
        {
          "internalType": "string",
          "name": "highImageUri",
          "type": "string"
        },
        {
          "internalType": "address",
          "name": "priceFeedAddress",
          "type": "address"
        }
      ],
      "stateMutability": "nonpayable",
      "type": "constructor"
    },
    {
      "anonymous": false,
      "inputs": [
        {
          "indexed": true,
          "internalType": "address",
          "name": "owner",
          "type": "address"
        },
        {
          "indexed": true,
          "internalType": "address",
          "name": "approved",
          "type": "address"
        },
        {
          "indexed": true,
          "internalType": "uint256",
          "name": "tokenId",
          "type": "uint256"
        }
      ],
      "name": "Approval",
      "type": "event"
    },
    {
      "anonymous": false,
      "inputs": [
        {
          "indexed": true,
          "internalType": "address",
          "name": "owner",
          "type": "address"
        },
        {
          "indexed": true,
          "internalType": "address",
          "name": "operator",
          "type": "address"
        },
        {
          "indexed": false,
          "internalType": "bool",
          "name": "approved",
          "type": "bool"
        }
      ],
      "name": "ApprovalForAll",
      "type": "event"
    },
    {
      "anonymous": false,
      "inputs": [
        {
          "indexed": true,
          "internalType": "address",
          "name": "from",
          "type": "address"
        },
        {
          "indexed": true,
          "internalType": "address",
          "name": "to",
          "type": "address"
        },
        {
          "indexed": true,
          "internalType": "uint256",
          "name": "tokenId",
          "type": "uint256"
        }
      ],
      "name": "Transfer",
      "type": "event"
    },
    {
      "inputs": [
        {
          "internalType": "address",
          "name": "to",
          "type": "address"
        },
        {
          "internalType": "uint256",
          "name": "tokenId",
          "type": "uint256"
        }
      ],
      "name": "approve",
      "outputs": [],
      "stateMutability": "nonpayable",
      "type": "function"
    },
    {
      "inputs": [
        {
          "internalType": "address",
          "name": "owner",
          "type": "address"
        }
      ],
      "name": "balanceOf",
      "outputs": [
        {
          "internalType": "uint256",
          "name": "",
          "type": "uint256"
        }
      ],
      "stateMutability": "view",
      "type": "function"
    },
    {
      "inputs": [
        {
          "internalType": "uint256",
          "name": "tokenId",
          "type": "uint256"
        }
      ],
      "name": "getApproved",
      "outputs": [
        {
          "internalType": "address",
          "name": "",
          "type": "address"
        }
      ],
      "stateMutability": "view",
      "type": "function"
    },
    {
      "inputs": [
        {
          "internalType": "address",
          "name": "owner",
          "type": "address"
        },
        {
          "internalType": "address",
          "name": "operator",
          "type": "address"
        }
      ],
      "name": "isApprovedForAll",
      "outputs": [
        {
          "internalType": "bool",
          "name": "",
          "type": "bool"
        }
      ],
      "stateMutability": "view",
      "type": "function"
    },
    {
      "inputs": [
        {
          "internalType": "int256",
          "name": "highValue",
          "type": "int256"
        }
      ],
      "name": "mintNft",
      "outputs": [],
      "stateMutability": "nonpayable",
      "type": "function"
    },
    {
      "inputs": [],
      "name": "name",
      "outputs": [
        {
          "internalType": "string",
          "name": "",
          "type": "string"
        }
      ],
      "stateMutability": "view",
      "type": "function"
    },
    {
      "inputs": [
        {
          "internalType": "uint256",
          "name": "tokenId",
          "type": "uint256"
        }
      ],
      "name": "ownerOf",
      "outputs": [
        {
          "internalType": "address",
          "name": "",
          "type": "address"
        }
      ],
      "stateMutability": "view",
      "type": "function"
    },
    {
      "inputs": [
        {
          "internalType": "uint256",
          "name": "",
          "type": "uint256"
        }
      ],
      "name": "s_tokenIdToValue",
      "outputs": [
        {
          "internalType": "int256",
          "name": "",
          "type": "int256"
        }
      ],
      "stateMutability": "view",
      "type": "function"
    },
    {
      "inputs": [
        {
          "internalType": "address",
          "name": "from",
          "type": "address"
        },
        {
          "internalType": "address",
          "name": "to",
          "type": "address"
        },
        {
          "internalType": "uint256",
          "name": "tokenId",
          "type": "uint256"
        }
      ],
      "name": "safeTransferFrom",
      "outputs": [],
      "stateMutability": "nonpayable",
      "type": "function"
    },
    {
      "inputs": [
        {
          "internalType": "address",
          "name": "from",
          "type": "address"
        },
        {
          "internalType": "address",
          "name": "to",
          "type": "address"
        },
        {
          "internalType": "uint256",
          "name": "tokenId",
          "type": "uint256"
        },
        {
          "internalType": "bytes",
          "name": "data",
          "type": "bytes"
        }
      ],
      "name": "safeTransferFrom",
      "outputs": [],
      "stateMutability": "nonpayable",
      "type": "function"
    },
    {
      "inputs": [
        {
          "internalType": "address",
          "name": "operator",
          "type": "address"
        },
        {
          "internalType": "bool",
          "name": "approved",
          "type": "bool"
        }
      ],
      "name": "setApprovalForAll",
      "outputs": [],
      "stateMutability": "nonpayable",
      "type": "function"
    },
    {
      "inputs": [
        {
          "internalType": "bytes4",
          "name": "interfaceId",
          "type": "bytes4"
        }
      ],
      "name": "supportsInterface",
      "outputs": [
        {
          "internalType": "bool",
          "name": "",
          "type": "bool"
        }
      ],
      "stateMutability": "view",
      "type": "function"
    },
    {
      "inputs": [
        {
          "internalType": "string",
          "name": "svg",
          "type": "string"
        }
      ],
      "name": "svgToImageUri",
      "outputs": [
        {
          "internalType": "string",
          "name": "",
          "type": "string"
        }
      ],
      "stateMutability": "pure",
      "type": "function"
    },
    {
      "inputs": [],
      "name": "symbol",
      "outputs": [
        {
          "internalType": "string",
          "name": "",
          "type": "string"
        }
      ],
      "stateMutability": "view",
      "type": "function"
    },
    {
      "inputs": [
        {
          "internalType": "uint256",
          "name": "tokenId",
          "type": "uint256"
        }
      ],
      "name": "tokenURI",
      "outputs": [
        {
          "internalType": "string",
          "name": "",
          "type": "string"
        }
      ],
      "stateMutability": "view",
      "type": "function"
    },
    {
      "inputs": [
        {
          "internalType": "address",
          "name": "from",
          "type": "address"
        },
        {
          "internalType": "address",
          "name": "to",
          "type": "address"
        },
        {
          "internalType": "uint256",
          "name": "tokenId",
          "type": "uint256"
        }
      ],
      "name": "transferFrom",
      "outputs": [],
      "stateMutability": "nonpayable",
      "type": "function"
    }
  ],
  "bytecode": "0x60a06040523480156200001157600080fd5b50604051620037d7380380620037d783398181016040528101906200003791906200064c565b6040518060400160405280600f81526020017f44796e616d696320537667204e667400000000000000000000000000000000008152506040518060400160405280600381526020017f44534e00000000000000000000000000000000000000000000000000000000008152508160009080519060200190620000bb9291906200039a565b508060019080519060200190620000d49291906200039a565b505050620000e8836200016e60201b60201c565b60079080519060200190620000ff9291906200039a565b5062000111826200016e60201b60201c565b60089080519060200190620001289291906200039a565b5060006006819055508073ffffffffffffffffffffffffffffffffffffffff1660808173ffffffffffffffffffffffffffffffffffffffff168152505050505062000937565b60606000620001a98360405160200162000189919062000733565b6040516020818303038152906040526200020c60201b62000d111760201c565b90506040518060400160405280601a81526020017f646174613a696d6167652f7376672b786d6c3b6261736536342c00000000000081525081604051602001620001f59291906200074c565b604051602081830303815290604052915050919050565b6060600082511415620002315760405180602001604052806000815250905062000395565b6000604051806060016040528060408152602001620037976040913990506000600360028551620002639190620007ad565b6200026f919062000839565b60046200027d919062000871565b90506000602082620002909190620007ad565b67ffffffffffffffff811115620002ac57620002ab62000479565b5b6040519080825280601f01601f191660200182016040528015620002df5781602001600182028036833780820191505090505b509050818152600183018586518101602084015b8183101562000350576003830192508251603f8160121c168501518253600182019150603f81600c1c168501518253600182019150603f8160061c168501518253600182019150603f8116850151825360018201915050620002f3565b6003895106600181146200036d57600281146200037e5762000389565b613d3d60f01b600283035262000389565b603d60f81b60018303525b50505050508093505050505b919050565b828054620003a89062000901565b90600052602060002090601f016020900481019282620003cc576000855562000418565b82601f10620003e757805160ff191683800117855562000418565b8280016001018555821562000418579182015b8281111562000417578251825591602001919060010190620003fa565b5b5090506200042791906200042b565b5090565b5b80821115620004465760008160009055506001016200042c565b5090565b6000604051905090565b600080fd5b600080fd5b600080fd5b600080fd5b6000601f19601f8301169050919050565b7f4e487b7100000000000000000000000000000000000000000000000000000000600052604160045260246000fd5b620004b38262000468565b810181811067ffffffffffffffff82111715620004d557620004d462000479565b5b80604052505050565b6000620004ea6200044a565b9050620004f88282620004a8565b919050565b600067ffffffffffffffff8211156200051b576200051a62000479565b5b620005268262000468565b9050602081019050919050565b60005b838110156200055357808201518184015260208101905062000536565b8381111562000563576000848401525b50505050565b6000620005806200057a84620004fd565b620004de565b9050828152602081018484840111156200059f576200059e62000463565b5b620005ac84828562000533565b509392505050565b600082601f830112620005cc57620005cb6200045e565b5b8151620005de84826020860162000569565b91505092915050565b600073ffffffffffffffffffffffffffffffffffffffff82169050919050565b60006200061482620005e7565b9050919050565b620006268162000607565b81146200063257600080fd5b50565b60008151905062000646816200061b565b92915050565b60008060006060848603121562000668576200066762000454565b5b600084015167ffffffffffffffff81111562000689576200068862000459565b5b6200069786828701620005b4565b935050602084015167ffffffffffffffff811115620006bb57620006ba62000459565b5b620006c986828701620005b4565b9250506040620006dc8682870162000635565b9150509250925092565b600081519050919050565b600081905092915050565b60006200070982620006e6565b620007158185620006f1565b93506200072781856020860162000533565b80840191505092915050565b6000620007418284620006fc565b915081905092915050565b60006200075a8285620006fc565b9150620007688284620006fc565b91508190509392505050565b6000819050919050565b7f4e487b7100000000000000000000000000000000000000000000000000000000600052601160045260246000fd5b6000620007ba8262000774565b9150620007c78362000774565b9250827fffffffffffffffffffffffffffffffffffffffffffffffffffffffffffffffff03821115620007ff57620007fe6200077e565b5b828201905092915050565b7f4e487b7100000000000000000000000000000000000000000000000000000000600052601260045260246000fd5b6000620008468262000774565b9150620008538362000774565b9250826200086657620008656200080a565b5b828204905092915050565b60006200087e8262000774565b91506200088b8362000774565b9250817fffffffffffffffffffffffffffffffffffffffffffffffffffffffffffffffff0483118215151615620008c757620008c66200077e565b5b828202905092915050565b7f4e487b7100000000000000000000000000000000000000000000000000000000600052602260045260246000fd5b600060028204905060018216806200091a57607f821691505b60208210811415620009315762000930620008d2565b5b50919050565b608051612e44620009536000396000610a220152612e446000f3fe608060405234801561001057600080fd5b50600436106101005760003560e01c80636352211e11610097578063b88d4fde11610066578063b88d4fde146102bd578063c87b56dd146102d9578063e4c15a8114610309578063e985e9c51461033957610100565b80636352211e1461022357806370a082311461025357806395d89b4114610283578063a22cb465146102a157610100565b80631e930812116100d35780631e9308121461019f57806323b872dd146101bb5780633207d93c146101d757806342842e0e1461020757610100565b806301ffc9a71461010557806306fdde0314610135578063081812fc14610153578063095ea7b314610183575b600080fd5b61011f600480360381019061011a9190611adc565b610369565b60405161012c9190611b24565b60405180910390f35b61013d61044b565b60405161014a9190611bd8565b60405180910390f35b61016d60048036038101906101689190611c30565b6104dd565b60405161017a9190611c9e565b60405180910390f35b61019d60048036038101906101989190611ce5565b610523565b005b6101b960048036038101906101b49190611d5b565b61063b565b005b6101d560048036038101906101d09190611d88565b61067e565b005b6101f160048036038101906101ec9190611f10565b6106de565b6040516101fe9190611bd8565b60405180910390f35b610221600480360381019061021c9190611d88565b61076b565b005b61023d60048036038101906102389190611c30565b61078b565b60405161024a9190611c9e565b60405180910390f35b61026d60048036038101906102689190611f59565b610812565b60405161027a9190611f95565b60405180910390f35b61028b6108ca565b6040516102989190611bd8565b60405180910390f35b6102bb60048036038101906102b69190611fdc565b61095c565b005b6102d760048036038101906102d291906120bd565b610972565b005b6102f360048036038101906102ee9190611c30565b6109d4565b6040516103009190611bd8565b60405180910390f35b610323600480360381019061031e9190611c30565b610c65565b604051610330919061214f565b60405180910390f35b610353600480360381019061034e919061216a565b610c7d565b6040516103609190611b24565b60405180910390f35b60007f80ac58cd000000000000000000000000000000000000000000000000000000007bffffffffffffffffffffffffffffffffffffffffffffffffffffffff1916827bffffffffffffffffffffffffffffffffffffffffffffffffffffffff1916148061043457507f5b5e139f000000000000000000000000000000000000000000000000000000007bffffffffffffffffffffffffffffffffffffffffffffffffffffffff1916827bffffffffffffffffffffffffffffffffffffffffffffffffffffffff1916145b80610444575061044382610e8a565b5b9050919050565b60606000805461045a906121d9565b80601f0160208091040260200160405190810160405280929190818152602001828054610486906121d9565b80156104d35780601f106104a8576101008083540402835291602001916104d3565b820191906000526020600020905b8154815290600101906020018083116104b657829003601f168201915b5050505050905090565b60006104e882610ef4565b6004600083815260200190815260200160002060009054906101000a900473ffffffffffffffffffffffffffffffffffffffff169050919050565b600061052e8261078b565b90508073ffffffffffffffffffffffffffffffffffffffff168373ffffffffffffffffffffffffffffffffffffffff16141561059f576040517f08c379a00000000000000000000000000000000000000000000000000000000081526004016105969061227d565b60405180910390fd5b8073ffffffffffffffffffffffffffffffffffffffff166105be610f3f565b73ffffffffffffffffffffffffffffffffffffffff1614806105ed57506105ec816105e7610f3f565b610c7d565b5b61062c576040517f08c379a00000000000000000000000000000000000000000000000000000000081526004016106239061230f565b60405180910390fd5b6106368383610f47565b505050565b806009600060065481526020019081526020016000208190555061066133600654611000565b600160066000828254610674919061235e565b9250508190555050565b61068f610689610f3f565b8261101e565b6106ce576040517f08c379a00000000000000000000000000000000000000000000000000000000081526004016106c590612426565b60405180910390fd5b6106d98383836110b3565b505050565b6060600061070a836040516020016106f69190612482565b604051602081830303815290604052610d11565b90506040518060400160405280601a81526020017f646174613a696d6167652f7376672b786d6c3b6261736536342c00000000000081525081604051602001610754929190612499565b604051602081830303815290604052915050919050565b61078683838360405180602001604052806000815250610972565b505050565b600080610797836113ad565b9050600073ffffffffffffffffffffffffffffffffffffffff168173ffffffffffffffffffffffffffffffffffffffff161415610809576040517f08c379a000000000000000000000000000000000000000000000000000000000815260040161080090612509565b60405180910390fd5b80915050919050565b60008073ffffffffffffffffffffffffffffffffffffffff168273ffffffffffffffffffffffffffffffffffffffff161415610883576040517f08c379a000000000000000000000000000000000000000000000000000000000815260040161087a9061259b565b60405180910390fd5b600360008373ffffffffffffffffffffffffffffffffffffffff1673ffffffffffffffffffffffffffffffffffffffff168152602001908152602001600020549050919050565b6060600180546108d9906121d9565b80601f0160208091040260200160405190810160405280929190818152602001828054610905906121d9565b80156109525780601f1061092757610100808354040283529160200191610952565b820191906000526020600020905b81548152906001019060200180831161093557829003601f168201915b5050505050905090565b61096e610967610f3f565b83836113ea565b5050565b61098361097d610f3f565b8361101e565b6109c2576040517f08c379a00000000000000000000000000000000000000000000000000000000081526004016109b990612426565b60405180910390fd5b6109ce84848484611557565b50505050565b60606109df826115b3565b610a1e576040517f08c379a0000000000000000000000000000000000000000000000000000000008152600401610a1590612607565b60405180910390fd5b60007f000000000000000000000000000000000000000000000000000000000000000073ffffffffffffffffffffffffffffffffffffffff1663feaf968c6040518163ffffffff1660e01b815260040160a06040518083038186803b158015610a8657600080fd5b505afa158015610a9a573d6000803e3d6000fd5b505050506040513d601f19601f82011682018060405250810190610abe9190612693565b505050915050600060078054610ad3906121d9565b80601f0160208091040260200160405190810160405280929190818152602001828054610aff906121d9565b8015610b4c5780601f10610b2157610100808354040283529160200191610b4c565b820191906000526020600020905b815481529060010190602001808311610b2f57829003601f168201915b505050505090506009600085815260200190815260200160002054821315610c025760088054610b7b906121d9565b80601f0160208091040260200160405190810160405280929190818152602001828054610ba7906121d9565b8015610bf45780601f10610bc957610100808354040283529160200191610bf4565b820191906000526020600020905b815481529060010190602001808311610bd757829003601f168201915b505050505092505050610c60565b610c0a6115f4565b610c3b610c1561044b565b83604051602001610c279291906128b0565b604051602081830303815290604052610d11565b604051602001610c4c929190612900565b604051602081830303815290604052925050505b919050565b60096020528060005260406000206000915090505481565b6000600560008473ffffffffffffffffffffffffffffffffffffffff1673ffffffffffffffffffffffffffffffffffffffff16815260200190815260200160002060008373ffffffffffffffffffffffffffffffffffffffff1673ffffffffffffffffffffffffffffffffffffffff16815260200190815260200160002060009054906101000a900460ff16905092915050565b6060600082511415610d3457604051806020016040528060008152509050610e85565b6000604051806060016040528060408152602001612dcf6040913990506000600360028551610d63919061235e565b610d6d9190612966565b6004610d799190612997565b90506000602082610d8a919061235e565b67ffffffffffffffff811115610da357610da2611de5565b5b6040519080825280601f01601f191660200182016040528015610dd55781602001600182028036833780820191505090505b509050818152600183018586518101602084015b81831015610e44576003830192508251603f8160121c168501518253600182019150603f81600c1c168501518253600182019150603f8160061c168501518253600182019150603f8116850151825360018201915050610de9565b600389510660018114610e5e5760028114610e6e57610e79565b613d3d60f01b6002830352610e79565b603d60f81b60018303525b50505050508093505050505b919050565b60007f01ffc9a7000000000000000000000000000000000000000000000000000000007bffffffffffffffffffffffffffffffffffffffffffffffffffffffff1916827bffffffffffffffffffffffffffffffffffffffffffffffffffffffff1916149050919050565b610efd816115b3565b610f3c576040517f08c379a0000000000000000000000000000000000000000000000000000000008152600401610f3390612509565b60405180910390fd5b50565b600033905090565b816004600083815260200190815260200160002060006101000a81548173ffffffffffffffffffffffffffffffffffffffff021916908373ffffffffffffffffffffffffffffffffffffffff160217905550808273ffffffffffffffffffffffffffffffffffffffff16610fba8361078b565b73ffffffffffffffffffffffffffffffffffffffff167f8c5be1e5ebec7d5bd14f71427d1e84f3dd0314c0f7b2291e5b200ac8c7c3b92560405160405180910390a45050565b61101a828260405180602001604052806000815250611631565b5050565b60008061102a8361078b565b90508073ffffffffffffffffffffffffffffffffffffffff168473ffffffffffffffffffffffffffffffffffffffff16148061106c575061106b8185610c7d565b5b806110aa57508373ffffffffffffffffffffffffffffffffffffffff16611092846104dd565b73ffffffffffffffffffffffffffffffffffffffff16145b91505092915050565b8273ffffffffffffffffffffffffffffffffffffffff166110d38261078b565b73ffffffffffffffffffffffffffffffffffffffff1614611129576040517f08c379a000000000000000000000000000000000000000000000000000000000815260040161112090612a63565b60405180910390fd5b600073ffffffffffffffffffffffffffffffffffffffff168273ffffffffffffffffffffffffffffffffffffffff161415611199576040517f08c379a000000000000000000000000000000000000000000000000000000000815260040161119090612af5565b60405180910390fd5b6111a6838383600161168c565b8273ffffffffffffffffffffffffffffffffffffffff166111c68261078b565b73ffffffffffffffffffffffffffffffffffffffff161461121c576040517f08c379a000000000000000000000000000000000000000000000000000000000815260040161121390612a63565b60405180910390fd5b6004600082815260200190815260200160002060006101000a81549073ffffffffffffffffffffffffffffffffffffffff02191690556001600360008573ffffffffffffffffffffffffffffffffffffffff1673ffffffffffffffffffffffffffffffffffffffff168152602001908152602001600020600082825403925050819055506001600360008473ffffffffffffffffffffffffffffffffffffffff1673ffffffffffffffffffffffffffffffffffffffff16815260200190815260200160002060008282540192505081905550816002600083815260200190815260200160002060006101000a81548173ffffffffffffffffffffffffffffffffffffffff021916908373ffffffffffffffffffffffffffffffffffffffff160217905550808273ffffffffffffffffffffffffffffffffffffffff168473ffffffffffffffffffffffffffffffffffffffff167fddf252ad1be2c89b69c2b068fc378daa952ba7f163c4a11628f55a4df523b3ef60405160405180910390a46113a88383836001611692565b505050565b60006002600083815260200190815260200160002060009054906101000a900473ffffffffffffffffffffffffffffffffffffffff169050919050565b8173ffffffffffffffffffffffffffffffffffffffff168373ffffffffffffffffffffffffffffffffffffffff161415611459576040517f08c379a000000000000000000000000000000000000000000000000000000000815260040161145090612b61565b60405180910390fd5b80600560008573ffffffffffffffffffffffffffffffffffffffff1673ffffffffffffffffffffffffffffffffffffffff16815260200190815260200160002060008473ffffffffffffffffffffffffffffffffffffffff1673ffffffffffffffffffffffffffffffffffffffff16815260200190815260200160002060006101000a81548160ff0219169083151502179055508173ffffffffffffffffffffffffffffffffffffffff168373ffffffffffffffffffffffffffffffffffffffff167f17307eab39ab6107e8899845ad3d59bd9653f200f220920489ca2b5937696c318360405161154a9190611b24565b60405180910390a3505050565b6115628484846110b3565b61156e84848484611698565b6115ad576040517f08c379a00000000000000000000000000000000000000000000000000000000081526004016115a490612bf3565b60405180910390fd5b50505050565b60008073ffffffffffffffffffffffffffffffffffffffff166115d5836113ad565b73ffffffffffffffffffffffffffffffffffffffff1614159050919050565b60606040518060400160405280601c81526020017f646174613a6170706c69636174696f6e2f6a736f6e3b62617365363400000000815250905090565b61163b838361182f565b6116486000848484611698565b611687576040517f08c379a000000000000000000000000000000000000000000000000000000000815260040161167e90612bf3565b60405180910390fd5b505050565b50505050565b50505050565b60006116b98473ffffffffffffffffffffffffffffffffffffffff16611a4d565b15611822578373ffffffffffffffffffffffffffffffffffffffff1663150b7a026116e2610f3f565b8786866040518563ffffffff1660e01b81526004016117049493929190612c68565b602060405180830381600087803b15801561171e57600080fd5b505af192505050801561174f57506040513d601f19601f8201168201806040525081019061174c9190612cc9565b60015b6117d2573d806000811461177f576040519150601f19603f3d011682016040523d82523d6000602084013e611784565b606091505b506000815114156117ca576040517f08c379a00000000000000000000000000000000000000000000000000000000081526004016117c190612bf3565b60405180910390fd5b805181602001fd5b63150b7a0260e01b7bffffffffffffffffffffffffffffffffffffffffffffffffffffffff1916817bffffffffffffffffffffffffffffffffffffffffffffffffffffffff191614915050611827565b600190505b949350505050565b600073ffffffffffffffffffffffffffffffffffffffff168273ffffffffffffffffffffffffffffffffffffffff16141561189f576040517f08c379a000000000000000000000000000000000000000000000000000000000815260040161189690612d42565b60405180910390fd5b6118a8816115b3565b156118e8576040517f08c379a00000000000000000000000000000000000000000000000000000000081526004016118df90612dae565b60405180910390fd5b6118f660008383600161168c565b6118ff816115b3565b1561193f576040517f08c379a000000000000000000000000000000000000000000000000000000000815260040161193690612dae565b60405180910390fd5b6001600360008473ffffffffffffffffffffffffffffffffffffffff1673ffffffffffffffffffffffffffffffffffffffff16815260200190815260200160002060008282540192505081905550816002600083815260200190815260200160002060006101000a81548173ffffffffffffffffffffffffffffffffffffffff021916908373ffffffffffffffffffffffffffffffffffffffff160217905550808273ffffffffffffffffffffffffffffffffffffffff16600073ffffffffffffffffffffffffffffffffffffffff167fddf252ad1be2c89b69c2b068fc378daa952ba7f163c4a11628f55a4df523b3ef60405160405180910390a4611a49600083836001611692565b5050565b6000808273ffffffffffffffffffffffffffffffffffffffff163b119050919050565b6000604051905090565b600080fd5b600080fd5b60007fffffffff0000000000000000000000000000000000000000000000000000000082169050919050565b611ab981611a84565b8114611ac457600080fd5b50565b600081359050611ad681611ab0565b92915050565b600060208284031215611af257611af1611a7a565b5b6000611b0084828501611ac7565b91505092915050565b60008115159050919050565b611b1e81611b09565b82525050565b6000602082019050611b396000830184611b15565b92915050565b600081519050919050565b600082825260208201905092915050565b60005b83811015611b79578082015181840152602081019050611b5e565b83811115611b88576000848401525b50505050565b6000601f19601f8301169050919050565b6000611baa82611b3f565b611bb48185611b4a565b9350611bc4818560208601611b5b565b611bcd81611b8e565b840191505092915050565b60006020820190508181036000830152611bf28184611b9f565b905092915050565b6000819050919050565b611c0d81611bfa565b8114611c1857600080fd5b50565b600081359050611c2a81611c04565b92915050565b600060208284031215611c4657611c45611a7a565b5b6000611c5484828501611c1b565b91505092915050565b600073ffffffffffffffffffffffffffffffffffffffff82169050919050565b6000611c8882611c5d565b9050919050565b611c9881611c7d565b82525050565b6000602082019050611cb36000830184611c8f565b92915050565b611cc281611c7d565b8114611ccd57600080fd5b50565b600081359050611cdf81611cb9565b92915050565b60008060408385031215611cfc57611cfb611a7a565b5b6000611d0a85828601611cd0565b9250506020611d1b85828601611c1b565b9150509250929050565b6000819050919050565b611d3881611d25565b8114611d4357600080fd5b50565b600081359050611d5581611d2f565b92915050565b600060208284031215611d7157611d70611a7a565b5b6000611d7f84828501611d46565b91505092915050565b600080600060608486031215611da157611da0611a7a565b5b6000611daf86828701611cd0565b9350506020611dc086828701611cd0565b9250506040611dd186828701611c1b565b9150509250925092565b600080fd5b600080fd5b7f4e487b7100000000000000000000000000000000000000000000000000000000600052604160045260246000fd5b611e1d82611b8e565b810181811067ffffffffffffffff82111715611e3c57611e3b611de5565b5b80604052505050565b6000611e4f611a70565b9050611e5b8282611e14565b919050565b600067ffffffffffffffff821115611e7b57611e7a611de5565b5b611e8482611b8e565b9050602081019050919050565b82818337600083830152505050565b6000611eb3611eae84611e60565b611e45565b905082815260208101848484011115611ecf57611ece611de0565b5b611eda848285611e91565b509392505050565b600082601f830112611ef757611ef6611ddb565b5b8135611f07848260208601611ea0565b91505092915050565b600060208284031215611f2657611f25611a7a565b5b600082013567ffffffffffffffff811115611f4457611f43611a7f565b5b611f5084828501611ee2565b91505092915050565b600060208284031215611f6f57611f6e611a7a565b5b6000611f7d84828501611cd0565b91505092915050565b611f8f81611bfa565b82525050565b6000602082019050611faa6000830184611f86565b92915050565b611fb981611b09565b8114611fc457600080fd5b50565b600081359050611fd681611fb0565b92915050565b60008060408385031215611ff357611ff2611a7a565b5b600061200185828601611cd0565b925050602061201285828601611fc7565b9150509250929050565b600067ffffffffffffffff82111561203757612036611de5565b5b61204082611b8e565b9050602081019050919050565b600061206061205b8461201c565b611e45565b90508281526020810184848401111561207c5761207b611de0565b5b612087848285611e91565b509392505050565b600082601f8301126120a4576120a3611ddb565b5b81356120b484826020860161204d565b91505092915050565b600080600080608085870312156120d7576120d6611a7a565b5b60006120e587828801611cd0565b94505060206120f687828801611cd0565b935050604061210787828801611c1b565b925050606085013567ffffffffffffffff81111561212857612127611a7f565b5b6121348782880161208f565b91505092959194509250565b61214981611d25565b82525050565b60006020820190506121646000830184612140565b92915050565b6000806040838503121561218157612180611a7a565b5b600061218f85828601611cd0565b92505060206121a085828601611cd0565b9150509250929050565b7f4e487b7100000000000000000000000000000000000000000000000000000000600052602260045260246000fd5b600060028204905060018216806121f157607f821691505b60208210811415612205576122046121aa565b5b50919050565b7f4552433732313a20617070726f76616c20746f2063757272656e74206f776e6560008201527f7200000000000000000000000000000000000000000000000000000000000000602082015250565b6000612267602183611b4a565b91506122728261220b565b604082019050919050565b600060208201905081810360008301526122968161225a565b9050919050565b7f4552433732313a20617070726f76652063616c6c6572206973206e6f7420746f60008201527f6b656e206f776e6572206f7220617070726f76656420666f7220616c6c000000602082015250565b60006122f9603d83611b4a565b91506123048261229d565b604082019050919050565b60006020820190508181036000830152612328816122ec565b9050919050565b7f4e487b7100000000000000000000000000000000000000000000000000000000600052601160045260246000fd5b600061236982611bfa565b915061237483611bfa565b9250827fffffffffffffffffffffffffffffffffffffffffffffffffffffffffffffffff038211156123a9576123a861232f565b5b828201905092915050565b7f4552433732313a2063616c6c6572206973206e6f7420746f6b656e206f776e6560008201527f72206f7220617070726f76656400000000000000000000000000000000000000602082015250565b6000612410602d83611b4a565b915061241b826123b4565b604082019050919050565b6000602082019050818103600083015261243f81612403565b9050919050565b600081905092915050565b600061245c82611b3f565b6124668185612446565b9350612476818560208601611b5b565b80840191505092915050565b600061248e8284612451565b915081905092915050565b60006124a58285612451565b91506124b18284612451565b91508190509392505050565b7f4552433732313a20696e76616c696420746f6b656e2049440000000000000000600082015250565b60006124f3601883611b4a565b91506124fe826124bd565b602082019050919050565b60006020820190508181036000830152612522816124e6565b9050919050565b7f4552433732313a2061646472657373207a65726f206973206e6f74206120766160008201527f6c6964206f776e65720000000000000000000000000000000000000000000000602082015250565b6000612585602983611b4a565b915061259082612529565b604082019050919050565b600060208201905081810360008301526125b481612578565b9050919050565b7f746f6b656e496420646f6573206e6f7420657869737473210000000000000000600082015250565b60006125f1601883611b4a565b91506125fc826125bb565b602082019050919050565b60006020820190508181036000830152612620816125e4565b9050919050565b600069ffffffffffffffffffff82169050919050565b61264681612627565b811461265157600080fd5b50565b6000815190506126638161263d565b92915050565b60008151905061267881611d2f565b92915050565b60008151905061268d81611c04565b92915050565b600080600080600060a086880312156126af576126ae611a7a565b5b60006126bd88828901612654565b95505060206126ce88828901612669565b94505060406126df8882890161267e565b93505060606126f08882890161267e565b925050608061270188828901612654565b9150509295509295909350565b7f7b226e616d65223a220000000000000000000000000000000000000000000000600082015250565b6000612744600983612446565b915061274f8261270e565b600982019050919050565b7f222c20226465736372697074696f6e3a2020416e204e6674207468617420636860008201527f616e676573206261736564206f6e20436861696e6c696e6b2066656564222c20602082015250565b60006127b6604083612446565b91506127c18261275a565b604082019050919050565b7f226174747269626975746573223a5b7b2274726169745f74797065223a20226360008201527f6f6f6c6e657373222c202276616c7565223a203130307d5d2c2022696d61676560208201527f223a202220000000000000000000000000000000000000000000000000000000604082015250565b600061284e604583612446565b9150612859826127cc565b604582019050919050565b7f227d000000000000000000000000000000000000000000000000000000000000600082015250565b600061289a600283612446565b91506128a582612864565b600282019050919050565b60006128bb82612737565b91506128c78285612451565b91506128d2826127a9565b91506128dd82612841565b91506128e98284612451565b91506128f48261288d565b91508190509392505050565b6000604082019050818103600083015261291a8185611b9f565b9050818103602083015261292e8184611b9f565b90509392505050565b7f4e487b7100000000000000000000000000000000000000000000000000000000600052601260045260246000fd5b600061297182611bfa565b915061297c83611bfa565b92508261298c5761298b612937565b5b828204905092915050565b60006129a282611bfa565b91506129ad83611bfa565b9250817fffffffffffffffffffffffffffffffffffffffffffffffffffffffffffffffff04831182151516156129e6576129e561232f565b5b828202905092915050565b7f4552433732313a207472616e736665722066726f6d20696e636f72726563742060008201527f6f776e6572000000000000000000000000000000000000000000000000000000602082015250565b6000612a4d602583611b4a565b9150612a58826129f1565b604082019050919050565b60006020820190508181036000830152612a7c81612a40565b9050919050565b7f4552433732313a207472616e7366657220746f20746865207a65726f2061646460008201527f7265737300000000000000000000000000000000000000000000000000000000602082015250565b6000612adf602483611b4a565b9150612aea82612a83565b604082019050919050565b60006020820190508181036000830152612b0e81612ad2565b9050919050565b7f4552433732313a20617070726f766520746f2063616c6c657200000000000000600082015250565b6000612b4b601983611b4a565b9150612b5682612b15565b602082019050919050565b60006020820190508181036000830152612b7a81612b3e565b9050919050565b7f4552433732313a207472616e7366657220746f206e6f6e20455243373231526560008201527f63656976657220696d706c656d656e7465720000000000000000000000000000602082015250565b6000612bdd603283611b4a565b9150612be882612b81565b604082019050919050565b60006020820190508181036000830152612c0c81612bd0565b9050919050565b600081519050919050565b600082825260208201905092915050565b6000612c3a82612c13565b612c448185612c1e565b9350612c54818560208601611b5b565b612c5d81611b8e565b840191505092915050565b6000608082019050612c7d6000830187611c8f565b612c8a6020830186611c8f565b612c976040830185611f86565b8181036060830152612ca98184612c2f565b905095945050505050565b600081519050612cc381611ab0565b92915050565b600060208284031215612cdf57612cde611a7a565b5b6000612ced84828501612cb4565b91505092915050565b7f4552433732313a206d696e7420746f20746865207a65726f2061646472657373600082015250565b6000612d2c602083611b4a565b9150612d3782612cf6565b602082019050919050565b60006020820190508181036000830152612d5b81612d1f565b9050919050565b7f4552433732313a20746f6b656e20616c7265616479206d696e74656400000000600082015250565b6000612d98601c83611b4a565b9150612da382612d62565b602082019050919050565b60006020820190508181036000830152612dc781612d8b565b905091905056fe4142434445464748494a4b4c4d4e4f505152535455565758595a6162636465666768696a6b6c6d6e6f707172737475767778797a303132333435363738392b2fa264697066735822122045901eedd570ef8b6a685bc4f012a393714e64a03b7360098aa32fc4ab3ba04d64736f6c634300080900334142434445464748494a4b4c4d4e4f505152535455565758595a6162636465666768696a6b6c6d6e6f707172737475767778797a303132333435363738392b2f",
  "linkReferences": {},
  "deployedLinkReferences": {}
}