{
  "_format": "hh-sol-artifact-1",
  "contractName": "RandomIpfsNft",
  "sourceName": "contracts/RandomIpfsNft.sol",
  "abi": [
    {
      "inputs": [
        {
          "internalType": "address",
          "name": "vrfCoordinatorV2",
          "type": "address"
        },
        {
          "internalType": "uint64",
          "name": "subscriptionId",
          "type": "uint64"
        },
        {
          "internalType": "bytes32",
          "name": "gasLane",
          "type": "bytes32"
        },
        {
          "internalType": "uint32",
          "name": "callbackGasLimit",
          "type": "uint32"
        },
        {
          "internalType": "string[3]",
          "name": "dogTokenUris",
          "type": "string[3]"
        },
        {
          "internalType": "uint256",
          "name": "mintFee",
          "type": "uint256"
        }
      ],
      "stateMutability": "nonpayable",
      "type": "constructor"
    },
    {
      "inputs": [],
      "name": "Ipfs_NotEnoughToMint",
      "type": "error"
    },
    {
      "inputs": [
        {
          "internalType": "address",
          "name": "have",
          "type": "address"
        },
        {
          "internalType": "address",
          "name": "want",
          "type": "address"
        }
      ],
      "name": "OnlyCoordinatorCanFulfill",
      "type": "error"
    },
    {
      "inputs": [],
      "name": "ipfs_Not_Owner",
      "type": "error"
    },
    {
      "inputs": [],
      "name": "ipfs_RangeOutOfBound",
      "type": "error"
    },
    {
      "inputs": [],
      "name": "ipfs_TransferFailed",
      "type": "error"
    },
    {
      "anonymous": false,
      "inputs": [
        {
          "indexed": true,
          "internalType": "address",
          "name": "owner",
          "type": "address"
        },
        {
          "indexed": true,
          "internalType": "address",
          "name": "approved",
          "type": "address"
        },
        {
          "indexed": true,
          "internalType": "uint256",
          "name": "tokenId",
          "type": "uint256"
        }
      ],
      "name": "Approval",
      "type": "event"
    },
    {
      "anonymous": false,
      "inputs": [
        {
          "indexed": true,
          "internalType": "address",
          "name": "owner",
          "type": "address"
        },
        {
          "indexed": true,
          "internalType": "address",
          "name": "operator",
          "type": "address"
        },
        {
          "indexed": false,
          "internalType": "bool",
          "name": "approved",
          "type": "bool"
        }
      ],
      "name": "ApprovalForAll",
      "type": "event"
    },
    {
      "anonymous": false,
      "inputs": [
        {
          "indexed": false,
          "internalType": "enum RandomIpfsNft.breed",
          "name": "dogBreed",
          "type": "uint8"
        },
        {
          "indexed": false,
          "internalType": "address",
          "name": "minter",
          "type": "address"
        }
      ],
      "name": "NftMinted",
      "type": "event"
    },
    {
      "anonymous": false,
      "inputs": [
        {
          "indexed": true,
          "internalType": "address",
          "name": "from",
          "type": "address"
        },
        {
          "indexed": true,
          "internalType": "address",
          "name": "to",
          "type": "address"
        },
        {
          "indexed": true,
          "internalType": "uint256",
          "name": "tokenId",
          "type": "uint256"
        }
      ],
      "name": "Transfer",
      "type": "event"
    },
    {
      "anonymous": false,
      "inputs": [
        {
          "indexed": true,
          "internalType": "uint256",
          "name": "requestId",
          "type": "uint256"
        },
        {
          "indexed": false,
          "internalType": "address",
          "name": "requester",
          "type": "address"
        }
      ],
      "name": "requestedNft",
      "type": "event"
    },
    {
      "inputs": [
        {
          "internalType": "address",
          "name": "to",
          "type": "address"
        },
        {
          "internalType": "uint256",
          "name": "tokenId",
          "type": "uint256"
        }
      ],
      "name": "approve",
      "outputs": [],
      "stateMutability": "nonpayable",
      "type": "function"
    },
    {
      "inputs": [
        {
          "internalType": "address",
          "name": "owner",
          "type": "address"
        }
      ],
      "name": "balanceOf",
      "outputs": [
        {
          "internalType": "uint256",
          "name": "",
          "type": "uint256"
        }
      ],
      "stateMutability": "view",
      "type": "function"
    },
    {
      "inputs": [
        {
          "internalType": "uint256",
          "name": "tokenId",
          "type": "uint256"
        }
      ],
      "name": "getApproved",
      "outputs": [
        {
          "internalType": "address",
          "name": "",
          "type": "address"
        }
      ],
      "stateMutability": "view",
      "type": "function"
    },
    {
      "inputs": [],
      "name": "getArrayChance",
      "outputs": [
        {
          "internalType": "uint256[3]",
          "name": "",
          "type": "uint256[3]"
        }
      ],
      "stateMutability": "pure",
      "type": "function"
    },
    {
      "inputs": [
        {
          "internalType": "uint256",
          "name": "moddedRng",
          "type": "uint256"
        }
      ],
      "name": "getBreedByModdedRng",
      "outputs": [
        {
          "internalType": "enum RandomIpfsNft.breed",
          "name": "",
          "type": "uint8"
        }
      ],
      "stateMutability": "pure",
      "type": "function"
    },
    {
      "inputs": [
        {
          "internalType": "uint256",
          "name": "index",
          "type": "uint256"
        }
      ],
      "name": "getDogTokenUris",
      "outputs": [
        {
          "internalType": "string",
          "name": "",
          "type": "string"
        }
      ],
      "stateMutability": "view",
      "type": "function"
    },
    {
      "inputs": [],
      "name": "getMintFee",
      "outputs": [
        {
          "internalType": "uint256",
          "name": "",
          "type": "uint256"
        }
      ],
      "stateMutability": "view",
      "type": "function"
    },
    {
      "inputs": [],
      "name": "getTokenCounter",
      "outputs": [
        {
          "internalType": "uint256",
          "name": "",
          "type": "uint256"
        }
      ],
      "stateMutability": "view",
      "type": "function"
    },
    {
      "inputs": [
        {
          "internalType": "address",
          "name": "owner",
          "type": "address"
        },
        {
          "internalType": "address",
          "name": "operator",
          "type": "address"
        }
      ],
      "name": "isApprovedForAll",
      "outputs": [
        {
          "internalType": "bool",
          "name": "",
          "type": "bool"
        }
      ],
      "stateMutability": "view",
      "type": "function"
    },
    {
      "inputs": [],
      "name": "name",
      "outputs": [
        {
          "internalType": "string",
          "name": "",
          "type": "string"
        }
      ],
      "stateMutability": "view",
      "type": "function"
    },
    {
      "inputs": [
        {
          "internalType": "uint256",
          "name": "tokenId",
          "type": "uint256"
        }
      ],
      "name": "ownerOf",
      "outputs": [
        {
          "internalType": "address",
          "name": "",
          "type": "address"
        }
      ],
      "stateMutability": "view",
      "type": "function"
    },
    {
      "inputs": [
        {
          "internalType": "uint256",
          "name": "requestId",
          "type": "uint256"
        },
        {
          "internalType": "uint256[]",
          "name": "randomWords",
          "type": "uint256[]"
        }
      ],
      "name": "rawFulfillRandomWords",
      "outputs": [],
      "stateMutability": "nonpayable",
      "type": "function"
    },
    {
      "inputs": [
        {
          "internalType": "uint256",
          "name": "",
          "type": "uint256"
        }
      ],
      "name": "requestIds",
      "outputs": [
        {
          "internalType": "uint256",
          "name": "",
          "type": "uint256"
        }
      ],
      "stateMutability": "view",
      "type": "function"
    },
    {
      "inputs": [],
      "name": "requestNft",
      "outputs": [
        {
          "internalType": "uint256",
          "name": "requestId",
          "type": "uint256"
        }
      ],
      "stateMutability": "payable",
      "type": "function"
    },
    {
      "inputs": [],
      "name": "s_tokenCounter",
      "outputs": [
        {
          "internalType": "uint256",
          "name": "",
          "type": "uint256"
        }
      ],
      "stateMutability": "view",
      "type": "function"
    },
    {
      "inputs": [
        {
          "internalType": "address",
          "name": "from",
          "type": "address"
        },
        {
          "internalType": "address",
          "name": "to",
          "type": "address"
        },
        {
          "internalType": "uint256",
          "name": "tokenId",
          "type": "uint256"
        }
      ],
      "name": "safeTransferFrom",
      "outputs": [],
      "stateMutability": "nonpayable",
      "type": "function"
    },
    {
      "inputs": [
        {
          "internalType": "address",
          "name": "from",
          "type": "address"
        },
        {
          "internalType": "address",
          "name": "to",
          "type": "address"
        },
        {
          "internalType": "uint256",
          "name": "tokenId",
          "type": "uint256"
        },
        {
          "internalType": "bytes",
          "name": "data",
          "type": "bytes"
        }
      ],
      "name": "safeTransferFrom",
      "outputs": [],
      "stateMutability": "nonpayable",
      "type": "function"
    },
    {
      "inputs": [
        {
          "internalType": "address",
          "name": "operator",
          "type": "address"
        },
        {
          "internalType": "bool",
          "name": "approved",
          "type": "bool"
        }
      ],
      "name": "setApprovalForAll",
      "outputs": [],
      "stateMutability": "nonpayable",
      "type": "function"
    },
    {
      "inputs": [
        {
          "internalType": "bytes4",
          "name": "interfaceId",
          "type": "bytes4"
        }
      ],
      "name": "supportsInterface",
      "outputs": [
        {
          "internalType": "bool",
          "name": "",
          "type": "bool"
        }
      ],
      "stateMutability": "view",
      "type": "function"
    },
    {
      "inputs": [],
      "name": "symbol",
      "outputs": [
        {
          "internalType": "string",
          "name": "",
          "type": "string"
        }
      ],
      "stateMutability": "view",
      "type": "function"
    },
    {
      "inputs": [
        {
          "internalType": "uint256",
          "name": "tokenId",
          "type": "uint256"
        }
      ],
      "name": "tokenURI",
      "outputs": [
        {
          "internalType": "string",
          "name": "",
          "type": "string"
        }
      ],
      "stateMutability": "view",
      "type": "function"
    },
    {
      "inputs": [
        {
          "internalType": "address",
          "name": "from",
          "type": "address"
        },
        {
          "internalType": "address",
          "name": "to",
          "type": "address"
        },
        {
          "internalType": "uint256",
          "name": "tokenId",
          "type": "uint256"
        }
      ],
      "name": "transferFrom",
      "outputs": [],
      "stateMutability": "nonpayable",
      "type": "function"
    },
    {
      "inputs": [],
      "name": "withdraw",
      "outputs": [],
      "stateMutability": "payable",
      "type": "function"
    }
  ],
  "bytecode": "0x6101606040523480156200001257600080fd5b506040516200402b3803806200402b833981810160405281019062000038919062000746565b6040518060400160405280600d81526020017f52616e646f6d497066734e6674000000000000000000000000000000000000008152506040518060400160405280600381526020017f52494e0000000000000000000000000000000000000000000000000000000000815250878073ffffffffffffffffffffffffffffffffffffffff1660808173ffffffffffffffffffffffffffffffffffffffff1681525050508160009080519060200190620000f2929190620001d9565b5080600190805190602001906200010b929190620001d9565b5050508573ffffffffffffffffffffffffffffffffffffffff1660a08173ffffffffffffffffffffffffffffffffffffffff16815250508467ffffffffffffffff1660c08167ffffffffffffffff16815250508360e081815250508263ffffffff166101008163ffffffff168152505081600a9060036200018e9291906200026a565b508061014081815250503373ffffffffffffffffffffffffffffffffffffffff166101208173ffffffffffffffffffffffffffffffffffffffff168152505050505050505062000866565b828054620001e79062000830565b90600052602060002090601f0160209004810192826200020b576000855562000257565b82601f106200022657805160ff191683800117855562000257565b8280016001018555821562000257579182015b828111156200025657825182559160200191906001019062000239565b5b509050620002669190620002d1565b5090565b828054828255906000526020600020908101928215620002be579160200282015b82811115620002bd578251829080519060200190620002ac929190620001d9565b50916020019190600101906200028b565b5b509050620002cd9190620002f0565b5090565b5b80821115620002ec576000816000905550600101620002d2565b5090565b5b808211156200031457600081816200030a919062000318565b50600101620002f1565b5090565b508054620003269062000830565b6000825580601f106200033a57506200035b565b601f0160209004906000526020600020908101906200035a9190620002d1565b5b50565b6000604051905090565b600080fd5b600080fd5b600073ffffffffffffffffffffffffffffffffffffffff82169050919050565b60006200039f8262000372565b9050919050565b620003b18162000392565b8114620003bd57600080fd5b50565b600081519050620003d181620003a6565b92915050565b600067ffffffffffffffff82169050919050565b620003f681620003d7565b81146200040257600080fd5b50565b6000815190506200041681620003eb565b92915050565b6000819050919050565b62000431816200041c565b81146200043d57600080fd5b50565b600081519050620004518162000426565b92915050565b600063ffffffff82169050919050565b620004728162000457565b81146200047e57600080fd5b50565b600081519050620004928162000467565b92915050565b600080fd5b6000601f19601f8301169050919050565b7f4e487b7100000000000000000000000000000000000000000000000000000000600052604160045260246000fd5b620004e8826200049d565b810181811067ffffffffffffffff821117156200050a5762000509620004ae565b5b80604052505050565b60006200051f6200035e565b90506200052d8282620004dd565b919050565b600067ffffffffffffffff82111562000550576200054f620004ae565b5b602082029050919050565b600080fd5b600080fd5b600067ffffffffffffffff821115620005835762000582620004ae565b5b6200058e826200049d565b9050602081019050919050565b60005b83811015620005bb5780820151818401526020810190506200059e565b83811115620005cb576000848401525b50505050565b6000620005e8620005e28462000565565b62000513565b90508281526020810184848401111562000607576200060662000560565b5b620006148482856200059b565b509392505050565b600082601f83011262000634576200063362000498565b5b815162000646848260208601620005d1565b91505092915050565b600062000666620006608462000532565b62000513565b905080602084028301858111156200068357620006826200055b565b5b835b81811015620006d157805167ffffffffffffffff811115620006ac57620006ab62000498565b5b808601620006bb89826200061c565b8552602085019450505060208101905062000685565b5050509392505050565b600082601f830112620006f357620006f262000498565b5b6003620007028482856200064f565b91505092915050565b6000819050919050565b62000720816200070b565b81146200072c57600080fd5b50565b600081519050620007408162000715565b92915050565b60008060008060008060c0878903121562000766576200076562000368565b5b60006200077689828a01620003c0565b96505060206200078989828a0162000405565b95505060406200079c89828a0162000440565b9450506060620007af89828a0162000481565b935050608087015167ffffffffffffffff811115620007d357620007d26200036d565b5b620007e189828a01620006db565b92505060a0620007f489828a016200072f565b9150509295509295509295565b7f4e487b7100000000000000000000000000000000000000000000000000000000600052602260045260246000fd5b600060028204905060018216806200084957607f821691505b6020821081141562000860576200085f62000801565b5b50919050565b60805160a05160c05160e05161010051610120516101405161375c620008cf60003960008181610db10152610ea501526000610b1501526000610f7f01526000610f3b01526000610f5c01526000610eff01526000818161086401526108b8015261375c6000f3fe6080604052600436106101405760003560e01c80636352211e116100b6578063a22cb4651161006f578063a22cb46514610475578063aa1524911461049e578063b88d4fde146104bc578063c87b56dd146104e5578063db169c6914610522578063e985e9c51461054d57610140565b80636352211e1461033d5780636e02007d1461037a57806370a08231146103a55780637a5caab3146103e25780638796ba8c1461040d57806395d89b411461044a57610140565b80631fe543e3116101085780631fe543e31461023e57806323b872dd1461026757806330d6b0f1146102905780633af25975146102cd5780633ccfd60b1461030a57806342842e0e1461031457610140565b806301ffc9a71461014557806306fdde0314610182578063081812fc146101ad578063095ea7b3146101ea5780630b21a83b14610213575b600080fd5b34801561015157600080fd5b5061016c6004803603810190610167919061246d565b61058a565b60405161017991906124b5565b60405180910390f35b34801561018e57600080fd5b5061019761066c565b6040516101a49190612569565b60405180910390f35b3480156101b957600080fd5b506101d460048036038101906101cf91906125c1565b6106fe565b6040516101e1919061262f565b60405180910390f35b3480156101f657600080fd5b50610211600480360381019061020c9190612676565b610744565b005b34801561021f57600080fd5b5061022861085c565b60405161023591906126c5565b60405180910390f35b34801561024a57600080fd5b5061026560048036038101906102609190612828565b610862565b005b34801561027357600080fd5b5061028e60048036038101906102899190612884565b610922565b005b34801561029c57600080fd5b506102b760048036038101906102b291906125c1565b610982565b6040516102c4919061294e565b60405180910390f35b3480156102d957600080fd5b506102f460048036038101906102ef91906125c1565b610a63565b6040516103019190612569565b60405180910390f35b610312610b13565b005b34801561032057600080fd5b5061033b60048036038101906103369190612884565b610c44565b005b34801561034957600080fd5b50610364600480360381019061035f91906125c1565b610c64565b604051610371919061262f565b60405180910390f35b34801561038657600080fd5b5061038f610ceb565b60405161039c91906126c5565b60405180910390f35b3480156103b157600080fd5b506103cc60048036038101906103c79190612969565b610cf5565b6040516103d991906126c5565b60405180910390f35b3480156103ee57600080fd5b506103f7610dad565b60405161040491906126c5565b60405180910390f35b34801561041957600080fd5b50610434600480360381019061042f91906125c1565b610dd5565b60405161044191906126c5565b60405180910390f35b34801561045657600080fd5b5061045f610df9565b60405161046c9190612569565b60405180910390f35b34801561048157600080fd5b5061049c600480360381019061049791906129c2565b610e8b565b005b6104a6610ea1565b6040516104b391906126c5565b60405180910390f35b3480156104c857600080fd5b506104e360048036038101906104de9190612ab7565b6110a1565b005b3480156104f157600080fd5b5061050c600480360381019061050791906125c1565b611103565b6040516105199190612569565b60405180910390f35b34801561052e57600080fd5b50610537611216565b6040516105449190612be5565b60405180910390f35b34801561055957600080fd5b50610574600480360381019061056f9190612c00565b611241565b60405161058191906124b5565b60405180910390f35b60007f80ac58cd000000000000000000000000000000000000000000000000000000007bffffffffffffffffffffffffffffffffffffffffffffffffffffffff1916827bffffffffffffffffffffffffffffffffffffffffffffffffffffffff1916148061065557507f5b5e139f000000000000000000000000000000000000000000000000000000007bffffffffffffffffffffffffffffffffffffffffffffffffffffffff1916827bffffffffffffffffffffffffffffffffffffffffffffffffffffffff1916145b806106655750610664826112d5565b5b9050919050565b60606000805461067b90612c6f565b80601f01602080910402602001604051908101604052809291908181526020018280546106a790612c6f565b80156106f45780601f106106c9576101008083540402835291602001916106f4565b820191906000526020600020905b8154815290600101906020018083116106d757829003601f168201915b5050505050905090565b60006107098261133f565b6004600083815260200190815260200160002060009054906101000a900473ffffffffffffffffffffffffffffffffffffffff169050919050565b600061074f82610c64565b90508073ffffffffffffffffffffffffffffffffffffffff168373ffffffffffffffffffffffffffffffffffffffff1614156107c0576040517f08c379a00000000000000000000000000000000000000000000000000000000081526004016107b790612d13565b60405180910390fd5b8073ffffffffffffffffffffffffffffffffffffffff166107df61138a565b73ffffffffffffffffffffffffffffffffffffffff16148061080e575061080d8161080861138a565b611241565b5b61084d576040517f08c379a000000000000000000000000000000000000000000000000000000000815260040161084490612da5565b60405180910390fd5b6108578383611392565b505050565b60085481565b7f000000000000000000000000000000000000000000000000000000000000000073ffffffffffffffffffffffffffffffffffffffff163373ffffffffffffffffffffffffffffffffffffffff161461091457337f00000000000000000000000000000000000000000000000000000000000000006040517f1cf993f400000000000000000000000000000000000000000000000000000000815260040161090b929190612dc5565b60405180910390fd5b61091e828261144b565b5050565b61093361092d61138a565b826115eb565b610972576040517f08c379a000000000000000000000000000000000000000000000000000000000815260040161096990612e60565b60405180910390fd5b61097d838383611680565b505050565b600080600090506000610993611216565b905060005b6003811015610a2b5782851180156109d157508181600381106109be576109bd612e80565b5b6020020151836109ce9190612ede565b85105b156109f3578060028111156109e9576109e86128d7565b5b9350505050610a5e565b818160038110610a0657610a05612e80565b5b602002015183610a169190612ede565b92508080610a2390612f34565b915050610998565b506040517f4c87e2b100000000000000000000000000000000000000000000000000000000815260040160405180910390fd5b919050565b6060600a8281548110610a7957610a78612e80565b5b906000526020600020018054610a8e90612c6f565b80601f0160208091040260200160405190810160405280929190818152602001828054610aba90612c6f565b8015610b075780601f10610adc57610100808354040283529160200191610b07565b820191906000526020600020905b815481529060010190602001808311610aea57829003601f168201915b50505050509050919050565b7f000000000000000000000000000000000000000000000000000000000000000073ffffffffffffffffffffffffffffffffffffffff163373ffffffffffffffffffffffffffffffffffffffff1614610b98576040517f21e0f6f500000000000000000000000000000000000000000000000000000000815260040160405180910390fd5b600047905060003373ffffffffffffffffffffffffffffffffffffffff1682604051610bc390612fae565b60006040518083038185875af1925050503d8060008114610c00576040519150601f19603f3d011682016040523d82523d6000602084013e610c05565b606091505b5050905080610c40576040517f23e477e700000000000000000000000000000000000000000000000000000000815260040160405180910390fd5b5050565b610c5f838383604051806020016040528060008152506110a1565b505050565b600080610c708361197a565b9050600073ffffffffffffffffffffffffffffffffffffffff168173ffffffffffffffffffffffffffffffffffffffff161415610ce2576040517f08c379a0000000000000000000000000000000000000000000000000000000008152600401610cd99061300f565b60405180910390fd5b80915050919050565b6000600854905090565b60008073ffffffffffffffffffffffffffffffffffffffff168273ffffffffffffffffffffffffffffffffffffffff161415610d66576040517f08c379a0000000000000000000000000000000000000000000000000000000008152600401610d5d906130a1565b60405180910390fd5b600360008373ffffffffffffffffffffffffffffffffffffffff1673ffffffffffffffffffffffffffffffffffffffff168152602001908152602001600020549050919050565b60007f0000000000000000000000000000000000000000000000000000000000000000905090565b60098181548110610de557600080fd5b906000526020600020016000915090505481565b606060018054610e0890612c6f565b80601f0160208091040260200160405190810160405280929190818152602001828054610e3490612c6f565b8015610e815780601f10610e5657610100808354040283529160200191610e81565b820191906000526020600020905b815481529060010190602001808311610e6457829003601f168201915b5050505050905090565b610e9d610e9661138a565b83836119b7565b5050565b60007f0000000000000000000000000000000000000000000000000000000000000000341015610efd576040517f73b53b9200000000000000000000000000000000000000000000000000000000815260040160405180910390fd5b7f000000000000000000000000000000000000000000000000000000000000000073ffffffffffffffffffffffffffffffffffffffff16635d3b1d307f00000000000000000000000000000000000000000000000000000000000000007f000000000000000000000000000000000000000000000000000000000000000060037f000000000000000000000000000000000000000000000000000000000000000060016040518663ffffffff1660e01b8152600401610fc0959493929190613139565b602060405180830381600087803b158015610fda57600080fd5b505af1158015610fee573d6000803e3d6000fd5b505050506040513d601f19601f8201168201806040525081019061101291906131a1565b9050336007600083815260200190815260200160002060006101000a81548173ffffffffffffffffffffffffffffffffffffffff021916908373ffffffffffffffffffffffffffffffffffffffff160217905550807f03b07f8d4bb79cdf471a71adc46fe8a07ec6dd5242ad9d8018d09303f41ef52433604051611096919061262f565b60405180910390a290565b6110b26110ac61138a565b836115eb565b6110f1576040517f08c379a00000000000000000000000000000000000000000000000000000000081526004016110e890612e60565b60405180910390fd5b6110fd84848484611b24565b50505050565b606061110e8261133f565b600060066000848152602001908152602001600020805461112e90612c6f565b80601f016020809104026020016040519081016040528092919081815260200182805461115a90612c6f565b80156111a75780601f1061117c576101008083540402835291602001916111a7565b820191906000526020600020905b81548152906001019060200180831161118a57829003601f168201915b5050505050905060006111b8611b80565b90506000815114156111ce578192505050611211565b6000825111156112035780826040516020016111eb92919061320a565b60405160208183030381529060405292505050611211565b61120c84611b97565b925050505b919050565b61121e61233c565b6040518060600160405280600a8152602001601e81526020016064815250905090565b6000600560008473ffffffffffffffffffffffffffffffffffffffff1673ffffffffffffffffffffffffffffffffffffffff16815260200190815260200160002060008373ffffffffffffffffffffffffffffffffffffffff1673ffffffffffffffffffffffffffffffffffffffff16815260200190815260200160002060009054906101000a900460ff16905092915050565b60007f01ffc9a7000000000000000000000000000000000000000000000000000000007bffffffffffffffffffffffffffffffffffffffffffffffffffffffff1916827bffffffffffffffffffffffffffffffffffffffffffffffffffffffff1916149050919050565b61134881611bff565b611387576040517f08c379a000000000000000000000000000000000000000000000000000000000815260040161137e9061300f565b60405180910390fd5b50565b600033905090565b816004600083815260200190815260200160002060006101000a81548173ffffffffffffffffffffffffffffffffffffffff021916908373ffffffffffffffffffffffffffffffffffffffff160217905550808273ffffffffffffffffffffffffffffffffffffffff1661140583610c64565b73ffffffffffffffffffffffffffffffffffffffff167f8c5be1e5ebec7d5bd14f71427d1e84f3dd0314c0f7b2291e5b200ac8c7c3b92560405160405180910390a45050565b60006007600084815260200190815260200160002060009054906101000a900473ffffffffffffffffffffffffffffffffffffffff1690506000600854905060006064846000815181106114a2576114a1612e80565b5b60200260200101516114b4919061325d565b9050600854600860008282546114ca9190612ede565b9250508190555060006114dc82610982565b90506114e88484611c40565b6115aa83600a836002811115611501576115006128d7565b5b8154811061151257611511612e80565b5b90600052602060002001805461152790612c6f565b80601f016020809104026020016040519081016040528092919081815260200182805461155390612c6f565b80156115a05780601f10611575576101008083540402835291602001916115a0565b820191906000526020600020905b81548152906001019060200180831161158357829003601f168201915b5050505050611c5e565b7f8a269f26b688e110e9cbd887d163dab35cae678fa353a0292de532c0cac1ecdc81856040516115db92919061328e565b60405180910390a1505050505050565b6000806115f783610c64565b90508073ffffffffffffffffffffffffffffffffffffffff168473ffffffffffffffffffffffffffffffffffffffff16148061163957506116388185611241565b5b8061167757508373ffffffffffffffffffffffffffffffffffffffff1661165f846106fe565b73ffffffffffffffffffffffffffffffffffffffff16145b91505092915050565b8273ffffffffffffffffffffffffffffffffffffffff166116a082610c64565b73ffffffffffffffffffffffffffffffffffffffff16146116f6576040517f08c379a00000000000000000000000000000000000000000000000000000000081526004016116ed90613329565b60405180910390fd5b600073ffffffffffffffffffffffffffffffffffffffff168273ffffffffffffffffffffffffffffffffffffffff161415611766576040517f08c379a000000000000000000000000000000000000000000000000000000000815260040161175d906133bb565b60405180910390fd5b6117738383836001611cd2565b8273ffffffffffffffffffffffffffffffffffffffff1661179382610c64565b73ffffffffffffffffffffffffffffffffffffffff16146117e9576040517f08c379a00000000000000000000000000000000000000000000000000000000081526004016117e090613329565b60405180910390fd5b6004600082815260200190815260200160002060006101000a81549073ffffffffffffffffffffffffffffffffffffffff02191690556001600360008573ffffffffffffffffffffffffffffffffffffffff1673ffffffffffffffffffffffffffffffffffffffff168152602001908152602001600020600082825403925050819055506001600360008473ffffffffffffffffffffffffffffffffffffffff1673ffffffffffffffffffffffffffffffffffffffff16815260200190815260200160002060008282540192505081905550816002600083815260200190815260200160002060006101000a81548173ffffffffffffffffffffffffffffffffffffffff021916908373ffffffffffffffffffffffffffffffffffffffff160217905550808273ffffffffffffffffffffffffffffffffffffffff168473ffffffffffffffffffffffffffffffffffffffff167fddf252ad1be2c89b69c2b068fc378daa952ba7f163c4a11628f55a4df523b3ef60405160405180910390a46119758383836001611cd8565b505050565b60006002600083815260200190815260200160002060009054906101000a900473ffffffffffffffffffffffffffffffffffffffff169050919050565b8173ffffffffffffffffffffffffffffffffffffffff168373ffffffffffffffffffffffffffffffffffffffff161415611a26576040517f08c379a0000000000000000000000000000000000000000000000000000000008152600401611a1d90613427565b60405180910390fd5b80600560008573ffffffffffffffffffffffffffffffffffffffff1673ffffffffffffffffffffffffffffffffffffffff16815260200190815260200160002060008473ffffffffffffffffffffffffffffffffffffffff1673ffffffffffffffffffffffffffffffffffffffff16815260200190815260200160002060006101000a81548160ff0219169083151502179055508173ffffffffffffffffffffffffffffffffffffffff168373ffffffffffffffffffffffffffffffffffffffff167f17307eab39ab6107e8899845ad3d59bd9653f200f220920489ca2b5937696c3183604051611b1791906124b5565b60405180910390a3505050565b611b2f848484611680565b611b3b84848484611cde565b611b7a576040517f08c379a0000000000000000000000000000000000000000000000000000000008152600401611b71906134b9565b60405180910390fd5b50505050565b606060405180602001604052806000815250905090565b6060611ba28261133f565b6000611bac611b80565b90506000815111611bcc5760405180602001604052806000815250611bf7565b80611bd684611e75565b604051602001611be792919061320a565b6040516020818303038152906040525b915050919050565b60008073ffffffffffffffffffffffffffffffffffffffff16611c218361197a565b73ffffffffffffffffffffffffffffffffffffffff1614159050919050565b611c5a828260405180602001604052806000815250611f4d565b5050565b611c6782611bff565b611ca6576040517f08c379a0000000000000000000000000000000000000000000000000000000008152600401611c9d9061354b565b60405180910390fd5b80600660008481526020019081526020016000209080519060200190611ccd92919061235e565b505050565b50505050565b50505050565b6000611cff8473ffffffffffffffffffffffffffffffffffffffff16611fa8565b15611e68578373ffffffffffffffffffffffffffffffffffffffff1663150b7a02611d2861138a565b8786866040518563ffffffff1660e01b8152600401611d4a94939291906135c0565b602060405180830381600087803b158015611d6457600080fd5b505af1925050508015611d9557506040513d601f19601f82011682018060405250810190611d929190613621565b60015b611e18573d8060008114611dc5576040519150601f19603f3d011682016040523d82523d6000602084013e611dca565b606091505b50600081511415611e10576040517f08c379a0000000000000000000000000000000000000000000000000000000008152600401611e07906134b9565b60405180910390fd5b805181602001fd5b63150b7a0260e01b7bffffffffffffffffffffffffffffffffffffffffffffffffffffffff1916817bffffffffffffffffffffffffffffffffffffffffffffffffffffffff191614915050611e6d565b600190505b949350505050565b606060006001611e8484611fcb565b01905060008167ffffffffffffffff811115611ea357611ea26126e5565b5b6040519080825280601f01601f191660200182016040528015611ed55781602001600182028036833780820191505090505b509050600082602001820190505b600115611f42578080600190039150507f3031323334353637383961626364656600000000000000000000000000000000600a86061a8153600a8581611f2c57611f2b61322e565b5b0494506000851415611f3d57611f42565b611ee3565b819350505050919050565b611f57838361211e565b611f646000848484611cde565b611fa3576040517f08c379a0000000000000000000000000000000000000000000000000000000008152600401611f9a906134b9565b60405180910390fd5b505050565b6000808273ffffffffffffffffffffffffffffffffffffffff163b119050919050565b600080600090507a184f03e93ff9f4daa797ed6e38ed64bf6a1f0100000000000000008310612029577a184f03e93ff9f4daa797ed6e38ed64bf6a1f010000000000000000838161201f5761201e61322e565b5b0492506040810190505b6d04ee2d6d415b85acef81000000008310612066576d04ee2d6d415b85acef8100000000838161205c5761205b61322e565b5b0492506020810190505b662386f26fc10000831061209557662386f26fc10000838161208b5761208a61322e565b5b0492506010810190505b6305f5e10083106120be576305f5e10083816120b4576120b361322e565b5b0492506008810190505b61271083106120e35761271083816120d9576120d861322e565b5b0492506004810190505b6064831061210657606483816120fc576120fb61322e565b5b0492506002810190505b600a8310612115576001810190505b80915050919050565b600073ffffffffffffffffffffffffffffffffffffffff168273ffffffffffffffffffffffffffffffffffffffff16141561218e576040517f08c379a00000000000000000000000000000000000000000000000000000000081526004016121859061369a565b60405180910390fd5b61219781611bff565b156121d7576040517f08c379a00000000000000000000000000000000000000000000000000000000081526004016121ce90613706565b60405180910390fd5b6121e5600083836001611cd2565b6121ee81611bff565b1561222e576040517f08c379a000000000000000000000000000000000000000000000000000000000815260040161222590613706565b60405180910390fd5b6001600360008473ffffffffffffffffffffffffffffffffffffffff1673ffffffffffffffffffffffffffffffffffffffff16815260200190815260200160002060008282540192505081905550816002600083815260200190815260200160002060006101000a81548173ffffffffffffffffffffffffffffffffffffffff021916908373ffffffffffffffffffffffffffffffffffffffff160217905550808273ffffffffffffffffffffffffffffffffffffffff16600073ffffffffffffffffffffffffffffffffffffffff167fddf252ad1be2c89b69c2b068fc378daa952ba7f163c4a11628f55a4df523b3ef60405160405180910390a4612338600083836001611cd8565b5050565b6040518060600160405280600390602082028036833780820191505090505090565b82805461236a90612c6f565b90600052602060002090601f01602090048101928261238c57600085556123d3565b82601f106123a557805160ff19168380011785556123d3565b828001600101855582156123d3579182015b828111156123d25782518255916020019190600101906123b7565b5b5090506123e091906123e4565b5090565b5b808211156123fd5760008160009055506001016123e5565b5090565b6000604051905090565b600080fd5b600080fd5b60007fffffffff0000000000000000000000000000000000000000000000000000000082169050919050565b61244a81612415565b811461245557600080fd5b50565b60008135905061246781612441565b92915050565b6000602082840312156124835761248261240b565b5b600061249184828501612458565b91505092915050565b60008115159050919050565b6124af8161249a565b82525050565b60006020820190506124ca60008301846124a6565b92915050565b600081519050919050565b600082825260208201905092915050565b60005b8381101561250a5780820151818401526020810190506124ef565b83811115612519576000848401525b50505050565b6000601f19601f8301169050919050565b600061253b826124d0565b61254581856124db565b93506125558185602086016124ec565b61255e8161251f565b840191505092915050565b600060208201905081810360008301526125838184612530565b905092915050565b6000819050919050565b61259e8161258b565b81146125a957600080fd5b50565b6000813590506125bb81612595565b92915050565b6000602082840312156125d7576125d661240b565b5b60006125e5848285016125ac565b91505092915050565b600073ffffffffffffffffffffffffffffffffffffffff82169050919050565b6000612619826125ee565b9050919050565b6126298161260e565b82525050565b60006020820190506126446000830184612620565b92915050565b6126538161260e565b811461265e57600080fd5b50565b6000813590506126708161264a565b92915050565b6000806040838503121561268d5761268c61240b565b5b600061269b85828601612661565b92505060206126ac858286016125ac565b9150509250929050565b6126bf8161258b565b82525050565b60006020820190506126da60008301846126b6565b92915050565b600080fd5b7f4e487b7100000000000000000000000000000000000000000000000000000000600052604160045260246000fd5b61271d8261251f565b810181811067ffffffffffffffff8211171561273c5761273b6126e5565b5b80604052505050565b600061274f612401565b905061275b8282612714565b919050565b600067ffffffffffffffff82111561277b5761277a6126e5565b5b602082029050602081019050919050565b600080fd5b60006127a461279f84612760565b612745565b905080838252602082019050602084028301858111156127c7576127c661278c565b5b835b818110156127f057806127dc88826125ac565b8452602084019350506020810190506127c9565b5050509392505050565b600082601f83011261280f5761280e6126e0565b5b813561281f848260208601612791565b91505092915050565b6000806040838503121561283f5761283e61240b565b5b600061284d858286016125ac565b925050602083013567ffffffffffffffff81111561286e5761286d612410565b5b61287a858286016127fa565b9150509250929050565b60008060006060848603121561289d5761289c61240b565b5b60006128ab86828701612661565b93505060206128bc86828701612661565b92505060406128cd868287016125ac565b9150509250925092565b7f4e487b7100000000000000000000000000000000000000000000000000000000600052602160045260246000fd5b60038110612917576129166128d7565b5b50565b600081905061292882612906565b919050565b60006129388261291a565b9050919050565b6129488161292d565b82525050565b6000602082019050612963600083018461293f565b92915050565b60006020828403121561297f5761297e61240b565b5b600061298d84828501612661565b91505092915050565b61299f8161249a565b81146129aa57600080fd5b50565b6000813590506129bc81612996565b92915050565b600080604083850312156129d9576129d861240b565b5b60006129e785828601612661565b92505060206129f8858286016129ad565b9150509250929050565b600080fd5b600067ffffffffffffffff821115612a2257612a216126e5565b5b612a2b8261251f565b9050602081019050919050565b82818337600083830152505050565b6000612a5a612a5584612a07565b612745565b905082815260208101848484011115612a7657612a75612a02565b5b612a81848285612a38565b509392505050565b600082601f830112612a9e57612a9d6126e0565b5b8135612aae848260208601612a47565b91505092915050565b60008060008060808587031215612ad157612ad061240b565b5b6000612adf87828801612661565b9450506020612af087828801612661565b9350506040612b01878288016125ac565b925050606085013567ffffffffffffffff811115612b2257612b21612410565b5b612b2e87828801612a89565b91505092959194509250565b600060039050919050565b600081905092915050565b6000819050919050565b612b638161258b565b82525050565b6000612b758383612b5a565b60208301905092915050565b6000602082019050919050565b612b9781612b3a565b612ba18184612b45565b9250612bac82612b50565b8060005b83811015612bdd578151612bc48782612b69565b9650612bcf83612b81565b925050600181019050612bb0565b505050505050565b6000606082019050612bfa6000830184612b8e565b92915050565b60008060408385031215612c1757612c1661240b565b5b6000612c2585828601612661565b9250506020612c3685828601612661565b9150509250929050565b7f4e487b7100000000000000000000000000000000000000000000000000000000600052602260045260246000fd5b60006002820490506001821680612c8757607f821691505b60208210811415612c9b57612c9a612c40565b5b50919050565b7f4552433732313a20617070726f76616c20746f2063757272656e74206f776e6560008201527f7200000000000000000000000000000000000000000000000000000000000000602082015250565b6000612cfd6021836124db565b9150612d0882612ca1565b604082019050919050565b60006020820190508181036000830152612d2c81612cf0565b9050919050565b7f4552433732313a20617070726f76652063616c6c6572206973206e6f7420746f60008201527f6b656e206f776e6572206f7220617070726f76656420666f7220616c6c000000602082015250565b6000612d8f603d836124db565b9150612d9a82612d33565b604082019050919050565b60006020820190508181036000830152612dbe81612d82565b9050919050565b6000604082019050612dda6000830185612620565b612de76020830184612620565b9392505050565b7f4552433732313a2063616c6c6572206973206e6f7420746f6b656e206f776e6560008201527f72206f7220617070726f76656400000000000000000000000000000000000000602082015250565b6000612e4a602d836124db565b9150612e5582612dee565b604082019050919050565b60006020820190508181036000830152612e7981612e3d565b9050919050565b7f4e487b7100000000000000000000000000000000000000000000000000000000600052603260045260246000fd5b7f4e487b7100000000000000000000000000000000000000000000000000000000600052601160045260246000fd5b6000612ee98261258b565b9150612ef48361258b565b9250827fffffffffffffffffffffffffffffffffffffffffffffffffffffffffffffffff03821115612f2957612f28612eaf565b5b828201905092915050565b6000612f3f8261258b565b91507fffffffffffffffffffffffffffffffffffffffffffffffffffffffffffffffff821415612f7257612f71612eaf565b5b600182019050919050565b600081905092915050565b50565b6000612f98600083612f7d565b9150612fa382612f88565b600082019050919050565b6000612fb982612f8b565b9150819050919050565b7f4552433732313a20696e76616c696420746f6b656e2049440000000000000000600082015250565b6000612ff96018836124db565b915061300482612fc3565b602082019050919050565b6000602082019050818103600083015261302881612fec565b9050919050565b7f4552433732313a2061646472657373207a65726f206973206e6f74206120766160008201527f6c6964206f776e65720000000000000000000000000000000000000000000000602082015250565b600061308b6029836124db565b91506130968261302f565b604082019050919050565b600060208201905081810360008301526130ba8161307e565b9050919050565b6000819050919050565b6130d4816130c1565b82525050565b600067ffffffffffffffff82169050919050565b6130f7816130da565b82525050565b600061ffff82169050919050565b613114816130fd565b82525050565b600063ffffffff82169050919050565b6131338161311a565b82525050565b600060a08201905061314e60008301886130cb565b61315b60208301876130ee565b613168604083018661310b565b613175606083018561312a565b613182608083018461312a565b9695505050505050565b60008151905061319b81612595565b92915050565b6000602082840312156131b7576131b661240b565b5b60006131c58482850161318c565b91505092915050565b600081905092915050565b60006131e4826124d0565b6131ee81856131ce565b93506131fe8185602086016124ec565b80840191505092915050565b600061321682856131d9565b915061322282846131d9565b91508190509392505050565b7f4e487b7100000000000000000000000000000000000000000000000000000000600052601260045260246000fd5b60006132688261258b565b91506132738361258b565b9250826132835761328261322e565b5b828206905092915050565b60006040820190506132a3600083018561293f565b6132b06020830184612620565b9392505050565b7f4552433732313a207472616e736665722066726f6d20696e636f72726563742060008201527f6f776e6572000000000000000000000000000000000000000000000000000000602082015250565b60006133136025836124db565b915061331e826132b7565b604082019050919050565b6000602082019050818103600083015261334281613306565b9050919050565b7f4552433732313a207472616e7366657220746f20746865207a65726f2061646460008201527f7265737300000000000000000000000000000000000000000000000000000000602082015250565b60006133a56024836124db565b91506133b082613349565b604082019050919050565b600060208201905081810360008301526133d481613398565b9050919050565b7f4552433732313a20617070726f766520746f2063616c6c657200000000000000600082015250565b60006134116019836124db565b915061341c826133db565b602082019050919050565b6000602082019050818103600083015261344081613404565b9050919050565b7f4552433732313a207472616e7366657220746f206e6f6e20455243373231526560008201527f63656976657220696d706c656d656e7465720000000000000000000000000000602082015250565b60006134a36032836124db565b91506134ae82613447565b604082019050919050565b600060208201905081810360008301526134d281613496565b9050919050565b7f45524337323155524953746f726167653a2055524920736574206f66206e6f6e60008201527f6578697374656e7420746f6b656e000000000000000000000000000000000000602082015250565b6000613535602e836124db565b9150613540826134d9565b604082019050919050565b6000602082019050818103600083015261356481613528565b9050919050565b600081519050919050565b600082825260208201905092915050565b60006135928261356b565b61359c8185613576565b93506135ac8185602086016124ec565b6135b58161251f565b840191505092915050565b60006080820190506135d56000830187612620565b6135e26020830186612620565b6135ef60408301856126b6565b81810360608301526136018184613587565b905095945050505050565b60008151905061361b81612441565b92915050565b6000602082840312156136375761363661240b565b5b60006136458482850161360c565b91505092915050565b7f4552433732313a206d696e7420746f20746865207a65726f2061646472657373600082015250565b60006136846020836124db565b915061368f8261364e565b602082019050919050565b600060208201905081810360008301526136b381613677565b9050919050565b7f4552433732313a20746f6b656e20616c7265616479206d696e74656400000000600082015250565b60006136f0601c836124db565b91506136fb826136ba565b602082019050919050565b6000602082019050818103600083015261371f816136e3565b905091905056fea26469706673582212209146de17e861f83ce9394b6e20150b2820875da9aa11739212e4764c173a3fdc64736f6c63430008090033",
  "linkReferences": {},
  "deployedLinkReferences": {}
}